:100000000C94A1010C94BE010C94BE010C94BE0191
:100010000C94BE010C94BE010C94BE010C94BE0164
:100020000C94BE010C94BE010C94BE010C94C00152
:100030000C94BE010C94BE010C94BE010C94BE0144
:100040000C94BE010C94BE010C94BE010C94BE0134
:100050000C94BE010C94BE010C94BE010C94BE0124
:100060000C94BE010C94BE0100407A10F35A00A01B
:10007000724E18090010A5D4E80000E87648170071
:1000800000E40B54020000CA9A3B000000E1F505B1
:10009000000080969800000040420F000000A086FB
:1000A00001000000102700000000E803000000002D
:1000B0006400000000000A000000000001000000D1
:1000C00000002C76D888DC674F0823DFC1DFAE59EB
:1000D000E1B1B796E5E3E453C63AE651997696E87E
:1000E000E6C28426EB898C9B62ED407C6FFCEFBC02
:1000F0009C9F40F2BAA56FA5F490055A2AF75C932D
:100100006B6CF9676DC11BFCE0E40D47FEF520E662
:10011000B500D0ED902E0300943577050080841E45
:10012000080000204E0A000000C80C333333330FA0
:10013000986E12831141EF8D2114893BE65516CF3D
:10014000FEE6DB18D1844B381BF77C1D901DA4BB49
:10015000E424203284725E228100C9F124ECA1E5FE
:100160003D27000000000000005F000000070007BE
:1001700000147F147F14242A7F2A12231308646238
:1001800036495522500005030000001C22410000A2
:1001900041221C0014083E081408083E08080050BC
:1001A00030000008080808080060600000201008FF
:1001B00004023E5149453E00427F400042615149A0
:1001C000462141454B311814127F102745454539CA
:1001D0003C4A494930017109050336494949360607
:1001E0004949291E00363600000056360000081422
:1001F0002241001414141414004122140802015165
:100200000906324979413E7E1111117E7F494949E3
:10021000363E414141227F4141221C7F49494941AB
:100220007F090909013E4149497A7F0808087F0092
:10023000417F41002040413F017F081422417F401F
:100240004040407F020C027F7F0408107F3E414106
:10025000413E7F090909063E4151215E7F09192966
:1002600046464949493101017F01013F4040403F35
:100270001F2040201F3F4038403F6314081463078D
:10028000087008076151494543007F41410002045D
:100290000810200041417F00040201020440404058
:1002A0004040000102040020545454787F484444E4
:1002B000383844444420384444487F38545454180F
:1002C000087E0901020C5252523E7F080404780055
:1002D000447D40002040443D007F10284400004100
:1002E0007F40007C041804787C0804047838444477
:1002F00044387C14141408081414187C7C08040472
:10030000084854545420043F4440203C4040207C42
:100310001C2040201C3C4030403C44281028440C09
:100320005050503C4464544C440008364100000096
:100330007F00000041360800100808100800000087
:10034000000011241FBECFEFD8E0DEBFCDBF11E00B
:10035000A0E0B1E0EAE0FBE102C005900D92A83117
:10036000B107D9F723E0A8E1B1E001C01D92A93699
:10037000B207E1F70E946E060C94830D0C94000006
:100380001F920F920FB60F9211242F933F934F930A
:100390005F936F937F938F939F93AF93BF93EF93ED
:1003A000FF9380912D0190912E0101968A30910545
:1003B000ACF490932E0180932D01FF91EF91BF91AA
:1003C000AF919F918F917F916F915F914F913F91ED
:1003D0002F910F900FBE0F901F90189510922E0125
:1003E00010922D0120E030E040E85FE360912901A8
:1003F00070912A0180912B0190912C010E94A507F8
:100400006093290170932A0180932B0190932C0112
:10041000D4CF2AE247E365E087E30E94DD042AE2C5
:100420004EE165E08EE10E94DD0443E069E286E191
:100430000E94FA0543E069E28AE20E94FA0543E07D
:1004400069E280E40E94FA050C94C8040E94D20379
:100450006CE080E00E94C30461E084E091E00E94CF
:10046000B3040C94C8040E94D2036CE080E00E94A4
:10047000C30461E08EE091E00E94B3040C94C804D0
:100480000F931F93CF93DF93CDB7DEB72E970FB6A1
:10049000F894DEBF0FBECDBF9A8789872AE939E974
:1004A00049E15FE36091290170912A0180912B015C
:1004B00090912C010E94A50769837A838B839C838A
:1004C0000E9488086D837E838F83988724E030E0C4
:1004D00089859A85281B390BA1E0B0E002C0AA0FDC
:1004E000BB1F2A95E2F7BE87AD878D819E81092EBD
:1004F000000CAA0BBB0B8D839E83AF83B8878091C2
:10050000290190912A01A0912B01B0912C0189879A
:100510009A87AB87BC876D817E818F8198850E9489
:10052000C00869837A838B839C8329853A854B85B0
:100530005C850E94700987FF3EC020E030E040E803
:100540005FE360911D0170911E0180911F019091E8
:1005500020010E94A50769837A838B839C83DC0139
:10056000CB0180931D0190931E01A0931F01B093B6
:10057000200120E030E040E850E4609121017091DA
:10058000220180912301909124010E9475096D83BD
:100590007E838F8398879B01AC0169817A818B81EF
:1005A0009C810E9470098095881F8827881F91E090
:1005B000892790E033C005E211E022E044E069853C
:1005C0007A858B859C850E94E20923B130E0AD8558
:1005D000BE852A233B23232B09F091CF20E030E076
:1005E00040E85FE360912101709122018091230135
:1005F000909124010E94A50760932101709322012C
:10060000809323019093240123B130E0AD85BE8512
:100610002A233B23232B69F081E090E02E960FB62E
:10062000F894DEBF0FBECDBFDF91CF911F910F9128
:1006300008958FE99FE00197F1F700C00000E4CF33
:10064000CF93DF9300D000D0CDB7DEB769837A8334
:100650008B839C8323E333E343E35FE30E947009CE
:1006600087FD09C084E08BB90F900F900F900F9019
:10067000DF91CF91089520E030E040E05FE36981B1
:100680007A818B819C810E94700987FD0EC023E3D3
:1006900033E343E35FE369817A818B819C810E942C
:1006A000110887FF02C082E0DECF20E030E040E8A2
:1006B0005EE369817A818B819C810E9470091816A2
:1006C0009CF620E030E040E05FE369817A818B8135
:1006D0009C810E94110887FFC7CF81E0C4CF40985A
:1006E0006623A9F0429A27E030E090E0AC01022EA8
:1006F00002C0559547950A94E2F740FF0AC0439A15
:10070000449A44982150310988F7409A08954298B4
:10071000EACF4398F5CF60E00C946F03CF93DF935B
:10072000389A399A3A9A3B9A3C9A419A409A8FE37E
:100730009CE90197F1F700C0000041989FEF2AE67D
:1007400083E0915020408040E1F700C00000419AD2
:10075000409881E20E948B0383E10E948B0386E034
:100760000E948B0382EC0E948B0380E20E948B0329
:1007700089E00E948B0380E80E948B0380E40E9442
:100780008B03C8EFD1E061E080E00E946F03219706
:100790002097C9F788E00E948B038CE0DF91CF910E
:1007A0000C948B0380E80E948B0380E40E948B03EF
:1007B0001092670310926803EFE6F1E088EF91E092
:1007C000DF019C011D9221503040E1F708958823FC
:1007D00019F080E20C948B0384E2FCCF962F96955F
:1007E00096959695E82FF0E084E5989FE00DF11D31
:1007F0001124E159FE4F2081677081E090E0DC0117
:1008000002C0AA0FBB1F6A95E2F7BD01442319F08D
:100810002A2B2083089560952623FBCF8F929F92E9
:10082000AF92BF92CF92DF92FF920F931F93CF931D
:10083000DF9300D000D00F92CDB7DEB7E82F162F90
:1008400080320CF44FC0E05285E0E802B001112480
:100850006E597E4F45E050E0CE0101960E94820A1B
:10086000CE0101966C0195E0199F5001112487E09B
:10087000189F4001112400E0802F90E08A159B050D
:100880000CF465C0809167038F5F912F990F990FCA
:10089000910F890F80936703843558F08091680326
:1008A000109267038F5F97E0199F800D112480934A
:1008B000680380916803803320F0109267031092E0
:1008C00068030F900F900F900F900F90DF91CF91D2
:1008D0001F910F91FF90DF90CF90BF90AF909F90AE
:1008E0008F900895EE0FFF0BE15DFE4FC080D18029
:1008F000C114D10409F0B7CF45E050E062E671E0E1
:10090000ABCFEF0D500F802F612F0E947007D601E3
:10091000A80FB11D2C9130E08F2D0E94700702C0EE
:10092000359527958A95E2F741E020FF40E06E2F4C
:10093000852F0E94EE03F394E091680350916703C2
:100940008F2D90E088159905E4F20F5F95CFF12C7B
:10095000F3CF80323CF4E82FEE0FFF0BE15DFE4F4A
:100960007183608308951F93CF93DF93162FEC015B
:100970008991811104C0DF91CF911F910895612F5A
:100980000E940E04F5CF8093670360936803089577
:10099000CF93DF9380E80E948B0380E40E948B0357
:1009A000CFE6D1E061E089910E946F0383E0C73612
:1009B000D807C1F7DF91CF9108954F925F926F9260
:1009C0007F928F929F92AF92BF92CF92DF92EF92DF
:1009D000FF92CF93DF93CDB7DEB762970FB6F8944F
:1009E000DEBF0FBECDBF898B6D87F22E481B550B26
:1009F000CA01550FAA0BBB0B89839A83AB83BC83B7
:100A0000BC01CD010E94C00869837A838B839C83DB
:100A1000AF2D4D85A41BBB0BCD01BB0FAA0BBB0B90
:100A20008D839E83AF83B887BC01CD010E94C0082F
:100A30006D837E838F83988789819A81AB81BC8106
:100A4000BF7789879A87AB87BC87CD80DE80EF80B0
:100A5000F884E894F7F8A7019601BC01CD010E9443
:100A6000700987FD04C0C984DA84EB84FC84A70183
:100A7000960169817A818B819C810E941608698325
:100A80007A838B839C832B013C01A70196016D81A6
:100A90007E818F8198850E9416084B015C0199899F
:100AA000892F90E0A0E0B0E089839A83AB83BC8378
:100AB000BC01CD010E94BE0869837A838B839C832D
:100AC0009D85892F90E0A0E0B0E08D839E83AF8369
:100AD000B887BC01CD010E94BE086D837E838F83E1
:100AE0009887A1E0B0E0BA8BA98B89899A89092EF1
:100AF000000CAA0BBB0B89879A87AB87BC87BC010C
:100B0000CD010E94C00869877A878B879C87A701DF
:100B100096010E9411081816ACF462960FB6F8946C
:100B2000DEBF0FBECDBFDF91CF91FF90EF90DF9082
:100B3000CF90BF90AF909F908F907F906F905F907D
:100B40004F9008956D817E818F8198850E948F08D6
:100B500069877A878B879C8769817A818B819C8161
:100B60000E948F086D877E878F87988B41E069850B
:100B70008D850E94EE03A301920169817A818B81A8
:100B80009C810E94A50769837A838B839C83A5013E
:100B900094016D817E818F8198850E94A5076D8368
:100BA0007E838F83988789899A8901969A8B898B0E
:100BB0009CCF0F931F93CF93DF93C82F162F042F33
:100BC000D22F262F0E94DD042D2F402F612F802F42
:100BD0000E94DD042D2F4C2F6D2F802F0E94DD04ED
:100BE000212F4C2F6D2F8C2FDF91CF911F910F91C3
:100BF0000C94DD047F928F929F92AF92BF92CF921E
:100C0000DF92EF92FF920F931F93CF93DF93D82E33
:100C1000C62EC42FD0E0E12CF12C00E010E041E022
:100C2000AC2CA00E6A2DBC2EBD0C8B2D0E94EE03A9
:100C300041E08C2E8C0C682D9D2C900E892D0E94ED
:100C4000EE0341E0682D7D2C701A872D0E94EE0383
:100C500041E06A2D8D2C8C1A882D0E94EE0341E014
:100C6000AC2CA01A6A2D882D0E94EE0341E08C2C3A
:100C70008C1A682D872D0E94EE0341E0682D892D86
:100C80000E94EE0341E06A2D8B2D0E94EE031E149C
:100C90001F045CF00F5F1F4FC801880F991F01965A
:100CA000E80EF91E1E141F043CF42197CE01880F94
:100CB000991F0196E81AF90AC017D1070CF0AFCFB7
:100CC000DF91CF911F910F91FF90EF90DF90CF9028
:100CD000BF90AF909F908F907F900895CDB7DEB773
:100CE0002A970FB6F894DEBF0FBECDBFF89484B13B
:100CF000817F84B985B18E6085B98AB187608AB9F0
:100D00001092800010928100109285001092840051
:100D100089E196E09093890080938800809181001A
:100D2000886080938100809181008560809381003C
:100D300080916F00826080936F000E948E03789490
:100D400010922E0110922D011092290110922A0169
:100D500010922B0110922C0110921D0110921E0175
:100D600010921F011092200180E090E0A0E8BFE304
:100D70008093210190932201A0932301B093240139
:100D800081E08093180183E0E82EF12C96E1D92EC2
:100D900020E030E040E752E46091290170912A019F
:100DA00080912B0190912C010E94110887FD08C0B1
:100DB00080911801882309F451C00E94330250C069
:100DC0000E94720AB7010E947C079C012F5F3F4F6F
:100DD0003A872987D29E5001D39EB00C112435E06A
:100DE00039830E94D2030E94090245E069818A2D5D
:100DF0000E94FA052091290130912A0140912B018E
:100E000050912C0160E070E080E792E40E94A4071A
:100E10006D837E838F83988705E211E020E044E0B4
:100E20000E94E20961E0C8010E94B3040E94C80464
:100E30008FEF99E6A8E181509040A040E1F700C013
:100E40000000B981BB5FB983B83259F689859A85AC
:100E50000E944002892B69F4109218010E94260218
:100E600080E090E02A960FB6F894DEBF0FBECDBFAB
:100E700008958091210190912201A0912301B091C8
:100E8000240189839A83AB83BC8320911D01309117
:100E90001E0140911F0150912001BC01CD010E9413
:100EA000A5076D837E838F8398879B01AC01698141
:100EB0007A818B819C810E94160869837A838B8357
:100EC0009C83DC01CB018093190190931A01A093BC
:100ED0001B01B0931C01BC01CD010E94200358CF1F
:100EE000991B79E004C0991F961708F0961B881F7C
:100EF0007A95C9F78095089597FB072E16F400940C
:100F000007D077FD09D00E94900707FC05D03EF47A
:100F1000909581959F4F0895709561957F4F0895A5
:100F2000AA1BBB1B51E107C0AA1FBB1FA617B7070F
:100F300010F0A61BB70B881F991F5A95A9F780952B
:100F40009095BC01CD0108955058BB27AA270E9457
:100F5000BC070C9436090E94280938F00E942F091A
:100F600020F039F49F3F19F426F40C9425090EF46F
:100F7000E095E7FB0C941F09E92F0E94470958F3FD
:100F8000BA17620773078407950720F079F4A6F56E
:100F90000C9469090EF4E0950B2EBA2FA02D0B01CD
:100FA000B90190010C01CA01A0011124FF27591BAE
:100FB00099F0593F50F4503E68F11A16F040A22FB4
:100FC000232F342F4427585FF3CF46953795279525
:100FD000A795F0405395C9F77EF41F16BA0B620B24
:100FE000730B840BBAF09150A1F0FF0FBB1F661F6B
:100FF000771F881FC2F70EC0BA0F621F731F841FAE
:1010000048F4879577956795B795F7959E3F08F0D3
:10101000B0CF9395880F08F09927EE0F9795879595
:1010200008950E94FB0808F481E008950E942A08B0
:101030000C9436090E942F0958F00E94280940F0AC
:1010400029F45F3F29F00C941F0951110C946A098F
:101050000C9425090E94470968F39923B1F355239D
:1010600091F3951B550BBB27AA27621773078407BB
:1010700038F09F5F5F4F220F331F441FAA1FA9F351
:1010800035D00E2E3AF0E0E832D091505040E6953F
:10109000001CCAF72BD0FE2F29D0660F771F881FA0
:1010A000BB1F261737074807AB07B0E809F0BB0B93
:1010B000802DBF01FF2793585F4F3AF09E3F5105A7
:1010C00078F00C941F090C946A095F3FE4F3983E92
:1010D000D4F3869577956795B795F7959F5FC9F790
:1010E000880F911D9695879597F90895E1E0660F11
:1010F000771F881FBB1F621773078407BA0720F08A
:10110000621B730B840BBA0BEE1F88F7E0950895F2
:101110000E948F086894B1110C946A0908950E9486
:101120004F0988F09F5798F0B92F9927B751B0F021
:10113000E1F0660F771F881F991F1AF0BA95C9F75B
:1011400014C0B13091F00E946909B1E008950C9487
:101150006909672F782F8827B85F39F0B93FCCF33A
:10116000869577956795B395D9F73EF490958095D8
:10117000709561957F4F8F4F9F4F0895E89409C0F8
:1011800097FB3EF490958095709561957F4F8F4FBA
:101190009F4F9923A9F0F92F96E9BB279395F695D0
:1011A000879577956795B795F111F8CFFAF4BB0F4E
:1011B00011F460FF1BC06F5F7F4F8F4F9F4F16C0B2
:1011C000882311F096E911C0772321F09EE8872F3C
:1011D000762F05C0662371F096E8862F70E060E0F8
:1011E0002AF09A95660F771F881FDAF7880F969571
:1011F000879597F90895990F0008550FAA0BE0E815
:10120000FEEF16161706E807F907C0F012161306C8
:10121000E407F50798F0621B730B840B950B39F408
:101220000A2661F0232B242B252B21F408950A266E
:1012300009F4A140A6958FEF811D811D089597F9AE
:101240009F6780E870E060E008959FEF80EC08956C
:1012500000240A9416161706180609060895002495
:101260000A9412161306140605060895092E03940F
:10127000000C11F4882352F0BB0F40F4BF2B11F483
:1012800060FF04C06F5F7F4F8F4F9F4F089557FDE2
:101290009058440F551F59F05F3F71F04795880FE4
:1012A00097FB991F61F09F3F79F08795089512167B
:1012B00013061406551FF2CF4695F1DF08C0161627
:1012C00017061806991FF1CF8695710561050894D8
:1012D0000895E894BB2766277727CB0197F90895EF
:1012E0000E94FB0808F48FEF08950E9488090C946F
:1012F00036090E94280938F00E942F0920F0952312
:1013000011F00C941F090C94250911240C946A09FE
:101310000E94470970F3959FC1F3950F50E0551F48
:10132000629FF001729FBB27F00DB11D639FAA273A
:10133000F00DB11DAA1F649F6627B00DA11D661F89
:10134000829F2227B00DA11D621F739FB00DA11DAA
:10135000621F839FA00D611D221F749F3327A00D64
:10136000611D231F849F600D211D822F762F6A2F00
:1013700011249F5750409AF0F1F088234AF0EE0F65
:10138000FF1FBB1F661F771F881F91505040A9F792
:101390009E3F510580F00C941F090C946A095F3F31
:1013A000E4F3983ED4F3869577956795B795F795CE
:1013B000E7959F5FC1F7FE2B880F911D9695879546
:1013C00097F90895EF920F931F93CF93DF9300D077
:1013D00000D00F92CDB7DEB7322F0D8354E047FD1A
:1013E00054E1242F27FD2195E52E032F4D81512F08
:1013F00069837A838B839C8369817A818B819C81C9
:101400000E948B0A8D81912F0F900F900F900F905B
:101410000F90DF91CF911F910F91EF900895CF9290
:10142000DF92EF92FF92CF93DF93CDB7DEB72A978B
:101430000FB6F894DEBF0FBECDBF89879A87A98506
:10144000BA852D913D914D915C9129833A834B83CF
:101450005C8382E49EECACE0BFE1211531054105DF
:10146000510549F1CA01B9012DE133EF41E050E0E6
:101470000E94E90C69017A01A7EAB1E49B01AC0181
:101480000E94080D69837A838B839C83ACEEB4EF52
:10149000A70196010E94160D9B01AC0189819A81DA
:1014A000AB81BC81820F931FA41FB51FB7FF03C080
:1014B0000197A109B048E985FA8580839183A283C9
:1014C000B3839F772A960FB6F894DEBF0FBECDBFC9
:1014D000DF91CF91FF90EF90DF90CF9008950E9421
:1014E0000F0A089580E091E00E940F0A0895A0E09D
:1014F000B0E08093000190930101A0930201B093AA
:1015000003010895FB01DC0102C005900D924150DA
:101510005040D8F70895ADE0B0E0E1E9FAE00C946E
:101520001C0D6A01722E602EFE2C102F2BE320174B
:1015300008F41BE31F5F012F27E0AE014F5F5F4FF1
:101540006A877B878C879D876A857B858C859D854F
:101550000E940A0C4C010981902F9970802F88708D
:101560003F2D3071913039F4882309F4FAC07DE2BF
:10157000A72E84E0BBC0B82EF1FCADC04F2D41704A
:10158000A42E442309F477C08111ACC002FDF0C041
:10159000F0E23F2E540197FE02C0A12CB12C41E095
:1015A00050E0311002C040E050E0C5010196840FC8
:1015B000951F462C512CA2014F5F5F4F611002C056
:1015C00040E050E0840F951F472D50E0272D281B49
:1015D000841795070CF020E03601FFEF6F1A7F0AA1
:1015E000332309F4CCC0332019F0D6013C926301B7
:1015F000180D3A81802F8071882319F0313309F456
:10160000115011160CF0E7C0193008F018E0F40181
:10161000EA19FB0941E050E04C0F5D1FE40FF51F94
:10162000A401411B51095194419451087EE28A144E
:101630009B040CF4D2C04A155B050CF0CEC091811E
:10164000B1E0AB1AB10836016FEF661A760A31962F
:10165000A414B5040CF4C3C0D6019C93BFEFAB1621
:10166000BB0639F4360162E0660E711CD601119694
:101670007C936301DCCF811138C0502F5470352E1C
:10168000552309F487CF83E0E72CE81A871508F083
:10169000E12C31110BC00E2D10E0A80160E270E0CA
:1016A000C6010E94E20CC00ED11EE12CBB2019F035
:1016B000F601B1926F0186010D5F1F4F29E69EE68C
:1016C00086E6F2FE03C029E49EE486E4F601208368
:1016D0009183828332C0811141C002FD4DC0EBE293
:1016E0003E2E58CF60E2A62E44CF83E0E72CE81AC6
:1016F000871508F0E12C31110BC00E2D10E0A80168
:1017000060E270E0C6010E94E20CC00ED11EE12C26
:10171000AA2019F0F601A1926F0186010D5F1F4FFB
:1017200091E68EE6F2FE02C091E48EE4D6018C933F
:1017300011969C93119712968C93F12CA70160E25D
:1017400070E0C8010E94E20CF801EE0DFF1D10824E
:101750008EEF9FEF2D96E1E10C94380D5BE2A52E04
:1017600008CF4DE2B42E02FD05C08DE2382E12CF17
:1017700020E2B22E84E088CF9BE2B92EFBCFF3FCAF
:1017800018C0E22EF12CA70160E270E0C6010E94B1
:10179000E20C36016E0C7F1C20E0332071F0FFEF6D
:1017A000EF1AFF0AD3013C9220E036016E0C7F1C39
:1017B00004C0332071F0F6013082C22ED12CA60174
:1017C00060E370E0C3010E94E20CC60CD71C20E06D
:1017D0000FCF3601F2CF11E01ACF90E331CF8A1448
:1017E0009B0439F4363320F4353319F4811101C0E8
:1017F00091E3F6019083E22EF12CA70160E270E004
:10180000C3010E94E20CF301EE0DFF1D108280E087
:1018100090E0A0CF283008F027E03327DA01990FB5
:10182000311D87FD916000966105710539F43260C4
:101830002E5F3D9330E32A95E1F708959F3F30F006
:1018400080387105610509F03C5F3C5F3D93913044
:1018500008F08068911DDF93CF931F930F93FF9241
:10186000EF92192F987F9695E92F96959695E90F07
:10187000FF27EE53FF4F99273327EE24FF24A701BC
:10188000E70105900894079428F4360FE71EF81E28
:10189000491F511D660F771F881F991F0694A1F7D6
:1018A0000590079428F4E70EF81E491F561FC11D26
:1018B000770F881F991F661F0694A1F7059007945C
:1018C00028F4F80E491F561FC71FD11D880F991FF6
:1018D000661F771F0694A1F70590079420F4490F1F
:1018E000561FC71FD81F990F661F771F881F0694A2
:1018F000A9F784911095177041F0D695C795579523
:101900004795F794E7941A95C1F7E8E6F0E06894F4
:101910001590159135916591959105907FE273959C
:10192000E118F10A430B560BC90BD009C0F7E10CC3
:10193000F11E431F561FC91FD01D7EF4703311F4D2
:101940008A95E6CFE894015030F0080F0AF400279A
:10195000021708F4202F2395022F7A3328F079E319
:101960007D932A95E9F710C07D932A9589F6069410
:1019700097956795379517951794E118F10A430BDA
:10198000560BC90BD00998F023957E9173957A3345
:1019900008F070E37C932013B8F77E9170617D931B
:1019A00030F0839571E37D9370E32A95E1F711247C
:1019B000EF90FF900F911F91CF91DF91992787FDB5
:1019C00090950895DC0101C06D9341505040E0F7BF
:1019D0000895052E97FB1EF400940E94000D57FDFC
:1019E00007D00E94520D07FC03D04EF40C94000D5A
:1019F00050954095309521953F4F4F4F5F4F08953B
:101A000090958095709561957F4F8F4F9F4F08956A
:101A10000E94740DA59F900DB49F900DA49F800D02
:101A2000911D11240895B7FF0C94080D0E94080D14
:101A3000821B930B08952F923F924F925F926F9269
:101A40007F928F929F92AF92BF92CF92DF92EF924E
:101A5000FF920F931F93CF93DF93CDB7DEB7CA1BCF
:101A6000DB0B0FB6F894DEBF0FBECDBF09942A88FA
:101A7000398848885F846E847D848C849B84AA84A2
:101A8000B984C884DF80EE80FD800C811B81AA812F
:101A9000B981CE0FD11D0FB6F894DEBF0FBECDBFFA
:101AA000ED010895A1E21A2EAA1BBB1BFD010DC07A
:101AB000AA1FBB1FEE1FFF1FA217B307E407F507FE
:101AC00020F0A21BB30BE40BF50B661F771F881FDA
:101AD000991F1A9469F760957095809590959B0170
:101AE000AC01BD01CF010895A29FB001B39FC00119
:101AF000A39F700D811D1124911DB29F700D811D3A
:0A1B00001124911D0895F894FFCF01
:101B0A000100000047616D65204F76657200596FCC
:081B1A00752057696E210000DF
:00000001FF
